{
  "contractName": "MultisigWallet",
  "abi": [
    {
      "anonymous": false,
      "inputs": [
        {
          "indexed": true,
          "internalType": "address",
          "name": "owner",
          "type": "address"
        },
        {
          "indexed": true,
          "internalType": "uint256",
          "name": "txId",
          "type": "uint256"
        }
      ],
      "name": "Approved",
      "type": "event"
    },
    {
      "anonymous": false,
      "inputs": [
        {
          "indexed": true,
          "internalType": "address",
          "name": "sender",
          "type": "address"
        },
        {
          "indexed": false,
          "internalType": "uint256",
          "name": "amount",
          "type": "uint256"
        }
      ],
      "name": "Deposit",
      "type": "event"
    },
    {
      "anonymous": false,
      "inputs": [
        {
          "indexed": true,
          "internalType": "uint256",
          "name": "txId",
          "type": "uint256"
        }
      ],
      "name": "Execute",
      "type": "event"
    },
    {
      "anonymous": false,
      "inputs": [
        {
          "indexed": true,
          "internalType": "address",
          "name": "owner",
          "type": "address"
        },
        {
          "indexed": true,
          "internalType": "uint256",
          "name": "txId",
          "type": "uint256"
        }
      ],
      "name": "Revoke",
      "type": "event"
    },
    {
      "anonymous": false,
      "inputs": [
        {
          "indexed": true,
          "internalType": "uint256",
          "name": "txId",
          "type": "uint256"
        }
      ],
      "name": "Submit",
      "type": "event"
    },
    {
      "inputs": [
        {
          "internalType": "uint256",
          "name": "",
          "type": "uint256"
        },
        {
          "internalType": "address",
          "name": "",
          "type": "address"
        }
      ],
      "name": "approved",
      "outputs": [
        {
          "internalType": "bool",
          "name": "",
          "type": "bool"
        }
      ],
      "stateMutability": "view",
      "type": "function"
    },
    {
      "inputs": [
        {
          "internalType": "address",
          "name": "",
          "type": "address"
        }
      ],
      "name": "isOwner",
      "outputs": [
        {
          "internalType": "bool",
          "name": "",
          "type": "bool"
        }
      ],
      "stateMutability": "view",
      "type": "function"
    },
    {
      "inputs": [
        {
          "internalType": "uint256",
          "name": "",
          "type": "uint256"
        }
      ],
      "name": "owners",
      "outputs": [
        {
          "internalType": "address",
          "name": "",
          "type": "address"
        }
      ],
      "stateMutability": "view",
      "type": "function"
    },
    {
      "inputs": [],
      "name": "required",
      "outputs": [
        {
          "internalType": "uint256",
          "name": "",
          "type": "uint256"
        }
      ],
      "stateMutability": "view",
      "type": "function"
    },
    {
      "inputs": [
        {
          "internalType": "uint256",
          "name": "",
          "type": "uint256"
        }
      ],
      "name": "transactions",
      "outputs": [
        {
          "internalType": "address",
          "name": "to",
          "type": "address"
        },
        {
          "internalType": "uint256",
          "name": "value",
          "type": "uint256"
        },
        {
          "internalType": "bytes",
          "name": "data",
          "type": "bytes"
        },
        {
          "internalType": "bool",
          "name": "executed",
          "type": "bool"
        }
      ],
      "stateMutability": "view",
      "type": "function"
    },
    {
      "inputs": [],
      "name": "walletName",
      "outputs": [
        {
          "internalType": "string",
          "name": "",
          "type": "string"
        }
      ],
      "stateMutability": "view",
      "type": "function"
    },
    {
      "inputs": [],
      "name": "getName",
      "outputs": [
        {
          "internalType": "string",
          "name": "",
          "type": "string"
        }
      ],
      "stateMutability": "view",
      "type": "function"
    },
    {
      "inputs": [],
      "name": "getOwnersCount",
      "outputs": [
        {
          "internalType": "uint256",
          "name": "",
          "type": "uint256"
        }
      ],
      "stateMutability": "view",
      "type": "function"
    },
    {
      "inputs": [],
      "name": "getRequired",
      "outputs": [
        {
          "internalType": "uint256",
          "name": "",
          "type": "uint256"
        }
      ],
      "stateMutability": "view",
      "type": "function"
    },
    {
      "inputs": [],
      "name": "getTxs",
      "outputs": [
        {
          "components": [
            {
              "internalType": "address",
              "name": "to",
              "type": "address"
            },
            {
              "internalType": "uint256",
              "name": "value",
              "type": "uint256"
            },
            {
              "internalType": "bytes",
              "name": "data",
              "type": "bytes"
            },
            {
              "internalType": "bool",
              "name": "executed",
              "type": "bool"
            }
          ],
          "internalType": "struct MultisigWallet.Transaction[]",
          "name": "",
          "type": "tuple[]"
        }
      ],
      "stateMutability": "view",
      "type": "function"
    },
    {
      "inputs": [
        {
          "internalType": "address",
          "name": "_to",
          "type": "address"
        },
        {
          "internalType": "uint256",
          "name": "_value",
          "type": "uint256"
        },
        {
          "internalType": "bytes",
          "name": "_data",
          "type": "bytes"
        }
      ],
      "name": "submit",
      "outputs": [],
      "stateMutability": "nonpayable",
      "type": "function"
    },
    {
      "inputs": [
        {
          "internalType": "uint256",
          "name": "_txId",
          "type": "uint256"
        }
      ],
      "name": "approve",
      "outputs": [],
      "stateMutability": "nonpayable",
      "type": "function"
    }
  ],
  "bytecode": "0x608060405234801561001057600080fd5b50611467806100206000396000f3fe608060405234801561001057600080fd5b50600436106100b45760003560e01c80638253951a116100715780638253951a1461018f5780639ace38c2146101bf578063b759f954146101f2578063cf8d8ca01461020e578063dc8452cd1461022c578063e0cedd9c1461024a576100b4565b8063025e7c27146100b95780631398a5f6146100e957806314de327f1461010757806317d7de7c146101235780632f54bf6e1461014157806373ff81cc14610171575b600080fd5b6100d360048036038101906100ce9190610c1a565b610268565b6040516100e09190610c88565b60405180910390f35b6100f16102a7565b6040516100fe9190610cb2565b60405180910390f35b610121600480360381019061011c9190610d5e565b6102b1565b005b61012b6104ba565b6040516101389190610e6b565b60405180910390f35b61015b60048036038101906101569190610e8d565b61054c565b6040516101689190610ed5565b60405180910390f35b61017961056c565b6040516101869190610cb2565b60405180910390f35b6101a960048036038101906101a49190610ef0565b610579565b6040516101b69190610ed5565b60405180910390f35b6101d960048036038101906101d49190610c1a565b6105a8565b6040516101e99493929190610f85565b60405180910390f35b61020c60048036038101906102079190610c1a565b61069d565b005b610216610937565b6040516102239190610e6b565b60405180910390f35b6102346109c5565b6040516102419190610cb2565b60405180910390f35b6102526109cb565b60405161025f919061116d565b60405180910390f35b6001818154811061027857600080fd5b906000526020600020016000915054906101000a900473ffffffffffffffffffffffffffffffffffffffff1681565b6000600254905090565b600460003373ffffffffffffffffffffffffffffffffffffffff1673ffffffffffffffffffffffffffffffffffffffff16815260200190815260200160002060009054906101000a900460ff1661033d576040517f08c379a0000000000000000000000000000000000000000000000000000000008152600401610334906111db565b60405180910390fd5b600360405180608001604052808673ffffffffffffffffffffffffffffffffffffffff16815260200185815260200184848080601f016020809104026020016040519081016040528093929190818152602001838380828437600081840152601f19601f82011690508083019250505050505050815260200160001515815250908060018154018082558091505060019003906000526020600020906004020160009091909190915060008201518160000160006101000a81548173ffffffffffffffffffffffffffffffffffffffff021916908373ffffffffffffffffffffffffffffffffffffffff160217905550602082015181600101556040820151816002019080519060200190610453929190610b37565b5060608201518160030160006101000a81548160ff02191690831515021790555050506001600380549050610488919061122a565b7f08324b3d745b914e3abd4ffbfead91e3b78391a98c173202129215ab933adfbe60405160405180910390a250505050565b6060600080546104c99061128d565b80601f01602080910402602001604051908101604052809291908181526020018280546104f59061128d565b80156105425780601f1061051757610100808354040283529160200191610542565b820191906000526020600020905b81548152906001019060200180831161052557829003601f168201915b5050505050905090565b60046020528060005260406000206000915054906101000a900460ff1681565b6000600180549050905090565b60056020528160005260406000206020528060005260406000206000915091509054906101000a900460ff1681565b600381815481106105b857600080fd5b90600052602060002090600402016000915090508060000160009054906101000a900473ffffffffffffffffffffffffffffffffffffffff16908060010154908060020180546106079061128d565b80601f01602080910402602001604051908101604052809291908181526020018280546106339061128d565b80156106805780601f1061065557610100808354040283529160200191610680565b820191906000526020600020905b81548152906001019060200180831161066357829003601f168201915b5050505050908060030160009054906101000a900460ff16905084565b600460003373ffffffffffffffffffffffffffffffffffffffff1673ffffffffffffffffffffffffffffffffffffffff16815260200190815260200160002060009054906101000a900460ff16610729576040517f08c379a0000000000000000000000000000000000000000000000000000000008152600401610720906111db565b60405180910390fd5b806003805490508110610771576040517f08c379a00000000000000000000000000000000000000000000000000000000081526004016107689061130a565b60405180910390fd5b816005600082815260200190815260200160002060003373ffffffffffffffffffffffffffffffffffffffff1673ffffffffffffffffffffffffffffffffffffffff16815260200190815260200160002060009054906101000a900460ff1615610810576040517f08c379a000000000000000000000000000000000000000000000000000000000815260040161080790611376565b60405180910390fd5b826003818154811061082557610824611396565b5b906000526020600020906004020160030160009054906101000a900460ff1615610884576040517f08c379a000000000000000000000000000000000000000000000000000000000815260040161087b90611411565b60405180910390fd5b60016005600086815260200190815260200160002060003373ffffffffffffffffffffffffffffffffffffffff1673ffffffffffffffffffffffffffffffffffffffff16815260200190815260200160002060006101000a81548160ff021916908315150217905550833373ffffffffffffffffffffffffffffffffffffffff167ff13bfe0b6ec5df39265dccb0a01a09aa4162489c7a083dc6670bde0255d02ca760405160405180910390a350505050565b600080546109449061128d565b80601f01602080910402602001604051908101604052809291908181526020018280546109709061128d565b80156109bd5780601f10610992576101008083540402835291602001916109bd565b820191906000526020600020905b8154815290600101906020018083116109a057829003601f168201915b505050505081565b60025481565b60606003805480602002602001604051908101604052809291908181526020016000905b82821015610b2e57838290600052602060002090600402016040518060800160405290816000820160009054906101000a900473ffffffffffffffffffffffffffffffffffffffff1673ffffffffffffffffffffffffffffffffffffffff1673ffffffffffffffffffffffffffffffffffffffff16815260200160018201548152602001600282018054610a829061128d565b80601f0160208091040260200160405190810160405280929190818152602001828054610aae9061128d565b8015610afb5780601f10610ad057610100808354040283529160200191610afb565b820191906000526020600020905b815481529060010190602001808311610ade57829003601f168201915b505050505081526020016003820160009054906101000a900460ff161515151581525050815260200190600101906109ef565b50505050905090565b828054610b439061128d565b90600052602060002090601f016020900481019282610b655760008555610bac565b82601f10610b7e57805160ff1916838001178555610bac565b82800160010185558215610bac579182015b82811115610bab578251825591602001919060010190610b90565b5b509050610bb99190610bbd565b5090565b5b80821115610bd6576000816000905550600101610bbe565b5090565b600080fd5b600080fd5b6000819050919050565b610bf781610be4565b8114610c0257600080fd5b50565b600081359050610c1481610bee565b92915050565b600060208284031215610c3057610c2f610bda565b5b6000610c3e84828501610c05565b91505092915050565b600073ffffffffffffffffffffffffffffffffffffffff82169050919050565b6000610c7282610c47565b9050919050565b610c8281610c67565b82525050565b6000602082019050610c9d6000830184610c79565b92915050565b610cac81610be4565b82525050565b6000602082019050610cc76000830184610ca3565b92915050565b610cd681610c67565b8114610ce157600080fd5b50565b600081359050610cf381610ccd565b92915050565b600080fd5b600080fd5b600080fd5b60008083601f840112610d1e57610d1d610cf9565b5b8235905067ffffffffffffffff811115610d3b57610d3a610cfe565b5b602083019150836001820283011115610d5757610d56610d03565b5b9250929050565b60008060008060608587031215610d7857610d77610bda565b5b6000610d8687828801610ce4565b9450506020610d9787828801610c05565b935050604085013567ffffffffffffffff811115610db857610db7610bdf565b5b610dc487828801610d08565b925092505092959194509250565b600081519050919050565b600082825260208201905092915050565b60005b83811015610e0c578082015181840152602081019050610df1565b83811115610e1b576000848401525b50505050565b6000601f19601f8301169050919050565b6000610e3d82610dd2565b610e478185610ddd565b9350610e57818560208601610dee565b610e6081610e21565b840191505092915050565b60006020820190508181036000830152610e858184610e32565b905092915050565b600060208284031215610ea357610ea2610bda565b5b6000610eb184828501610ce4565b91505092915050565b60008115159050919050565b610ecf81610eba565b82525050565b6000602082019050610eea6000830184610ec6565b92915050565b60008060408385031215610f0757610f06610bda565b5b6000610f1585828601610c05565b9250506020610f2685828601610ce4565b9150509250929050565b600081519050919050565b600082825260208201905092915050565b6000610f5782610f30565b610f618185610f3b565b9350610f71818560208601610dee565b610f7a81610e21565b840191505092915050565b6000608082019050610f9a6000830187610c79565b610fa76020830186610ca3565b8181036040830152610fb98185610f4c565b9050610fc86060830184610ec6565b95945050505050565b600081519050919050565b600082825260208201905092915050565b6000819050602082019050919050565b61100681610c67565b82525050565b61101581610be4565b82525050565b600082825260208201905092915050565b600061103782610f30565b611041818561101b565b9350611051818560208601610dee565b61105a81610e21565b840191505092915050565b61106e81610eba565b82525050565b600060808301600083015161108c6000860182610ffd565b50602083015161109f602086018261100c565b50604083015184820360408601526110b7828261102c565b91505060608301516110cc6060860182611065565b508091505092915050565b60006110e38383611074565b905092915050565b6000602082019050919050565b600061110382610fd1565b61110d8185610fdc565b93508360208202850161111f85610fed565b8060005b8581101561115b578484038952815161113c85826110d7565b9450611147836110eb565b925060208a01995050600181019050611123565b50829750879550505050505092915050565b6000602082019050818103600083015261118781846110f8565b905092915050565b7f73656e646572206d757374206265206f776e6572000000000000000000000000600082015250565b60006111c5601483610ddd565b91506111d08261118f565b602082019050919050565b600060208201905081810360008301526111f4816111b8565b9050919050565b7f4e487b7100000000000000000000000000000000000000000000000000000000600052601160045260246000fd5b600061123582610be4565b915061124083610be4565b925082821015611253576112526111fb565b5b828203905092915050565b7f4e487b7100000000000000000000000000000000000000000000000000000000600052602260045260246000fd5b600060028204905060018216806112a557607f821691505b6020821081036112b8576112b761125e565b5b50919050565b7f747820646f6573206e6f74206578697374000000000000000000000000000000600082015250565b60006112f4601183610ddd565b91506112ff826112be565b602082019050919050565b60006020820190508181036000830152611323816112e7565b9050919050565b7f747820616c726561647920617070726f76656400000000000000000000000000600082015250565b6000611360601383610ddd565b915061136b8261132a565b602082019050919050565b6000602082019050818103600083015261138f81611353565b9050919050565b7f4e487b7100000000000000000000000000000000000000000000000000000000600052603260045260246000fd5b7f7468697320747820697320616c72656164792065786578757465640000000000600082015250565b60006113fb601b83610ddd565b9150611406826113c5565b602082019050919050565b6000602082019050818103600083015261142a816113ee565b905091905056fea264697066735822122003d84415c9e9cc90d9a964f10d4bfa305667412a91593c8d490447d99797996364736f6c634300080d0033",
  "immutableReferences": {},
  "source": "// SPDX-License-Identifier: unlicensed\npragma solidity ^0.8.0;\n\n// Wallet\ncontract MultisigWallet {\n  // \n  struct Transaction {\n    // \n    address to;\n    // \n    uint value;\n    // \n    bytes data;\n    // \n    bool executed;\n  }\n\n  // \n  string public walletName;\n\n  function getName() public view returns (string memory) {\n    return walletName;\n  }\n\n  //OwnerOwner\n  address[] public owners;\n\n  function getOwnersCount() public view returns(uint){\n    return owners.length;\n  }\n\n  // \n  uint public required;\n\n  function getRequired() public view returns(uint){\n    return required;\n  }\n\n  //Transaction\n  Transaction[] public transactions;\n\n  function getTxs() public view returns(Transaction[] memory){\n    return transactions;\n  }\n\n\n  // addressownerTrue\n  mapping(address => bool) public isOwner;\n\n  // TransactionIDOwner\n  mapping(uint => mapping(address => bool)) public approved;\n\n  // \n  event Deposit(address indexed sender, uint amount);\n  event Submit(uint indexed txId);\n  event Approved(address indexed owner, uint indexed txId);\n  event Revoke(address indexed owner, uint indexed txId);\n  event Execute(uint indexed txId);\n\n  // modifier\n  modifier onlyOwner() {\n    require(isOwner[msg.sender], \"sender must be owner\");\n    _;\n  }\n\n  modifier txExists(uint _txId) {\n    require(_txId < transactions.length, \"tx does not exist\");\n    _;\n  }\n\n  modifier notApproved(uint _txId) {\n    require(!approved[_txId][msg.sender], \"tx already approved\");\n    _;\n  }\n\n  modifier notExecuted(uint _txId) {\n    require(!transactions[_txId].executed, \"this tx is already exexuted\");\n    _;\n  }\n\n\n  /**\n   * \n   * TransactionTransactions[]PushExecutedFalse\n   * @param _to \n   * @param _value\n   * @param _data\n   */\n  function submit(address _to, uint _value, bytes calldata _data) external onlyOwner{\n    transactions.push(Transaction({\n      to: _to,\n      value: _value,\n      data: _data,\n      executed: false\n    }));\n    // \n    emit Submit(transactions.length - 1);\n  }\n\n  /**\n   * ID\n   * @param _txId ID\n   */\n  function approve(uint _txId)external onlyOwner txExists(_txId) notApproved(_txId) notExecuted(_txId) {\n    // txapprovedtrue\n    approved[_txId][msg.sender] = true;\n\n    // \n    emit Approved(msg.sender, _txId);\n  }\n}\n",
  "sourcePath": "/Users/takagihrs/Desktop/MyProject/dapp/multisig-wallet/backend/contracts/MultisigWallet.sol",
  "compiler": {
    "name": "solc",
    "version": "0.8.13+commit.abaa5c0e.Emscripten.clang"
  },
  "schemaVersion": "3.4.7",
  "updatedAt": "2022-08-06T14:48:24.636Z",
  "devdoc": {
    "kind": "dev",
    "methods": {
      "approve(uint256)": {
        "params": {
          "_txId": "ID"
        }
      },
      "submit(address,uint256,bytes)": {
        "params": {
          "_data": "",
          "_to": "",
          "_value": ""
        }
      }
    },
    "version": 1
  },
  "userdoc": {
    "kind": "user",
    "methods": {
      "approve(uint256)": {
        "notice": "ID"
      },
      "submit(address,uint256,bytes)": {
        "notice": " TransactionTransactions[]PushExecutedFalse"
      }
    },
    "version": 1
  }
}