{
  "contractName": "MultisigWallet",
  "abi": [
    {
      "anonymous": false,
      "inputs": [
        {
          "indexed": true,
          "internalType": "address",
          "name": "owner",
          "type": "address"
        },
        {
          "indexed": true,
          "internalType": "uint256",
          "name": "txId",
          "type": "uint256"
        }
      ],
      "name": "Approved",
      "type": "event"
    },
    {
      "anonymous": false,
      "inputs": [
        {
          "indexed": true,
          "internalType": "address",
          "name": "sender",
          "type": "address"
        },
        {
          "indexed": false,
          "internalType": "uint256",
          "name": "amount",
          "type": "uint256"
        }
      ],
      "name": "Deposit",
      "type": "event"
    },
    {
      "anonymous": false,
      "inputs": [
        {
          "indexed": true,
          "internalType": "uint256",
          "name": "txId",
          "type": "uint256"
        }
      ],
      "name": "Execute",
      "type": "event"
    },
    {
      "anonymous": false,
      "inputs": [
        {
          "indexed": true,
          "internalType": "address",
          "name": "owner",
          "type": "address"
        },
        {
          "indexed": true,
          "internalType": "uint256",
          "name": "txId",
          "type": "uint256"
        }
      ],
      "name": "Revoke",
      "type": "event"
    },
    {
      "anonymous": false,
      "inputs": [
        {
          "indexed": true,
          "internalType": "uint256",
          "name": "txId",
          "type": "uint256"
        }
      ],
      "name": "Submit",
      "type": "event"
    },
    {
      "inputs": [
        {
          "internalType": "uint256",
          "name": "",
          "type": "uint256"
        },
        {
          "internalType": "address",
          "name": "",
          "type": "address"
        }
      ],
      "name": "approved",
      "outputs": [
        {
          "internalType": "bool",
          "name": "",
          "type": "bool"
        }
      ],
      "stateMutability": "view",
      "type": "function"
    },
    {
      "inputs": [
        {
          "internalType": "address",
          "name": "",
          "type": "address"
        }
      ],
      "name": "isOwner",
      "outputs": [
        {
          "internalType": "bool",
          "name": "",
          "type": "bool"
        }
      ],
      "stateMutability": "view",
      "type": "function"
    },
    {
      "inputs": [
        {
          "internalType": "uint256",
          "name": "",
          "type": "uint256"
        }
      ],
      "name": "owners",
      "outputs": [
        {
          "internalType": "address",
          "name": "",
          "type": "address"
        }
      ],
      "stateMutability": "view",
      "type": "function"
    },
    {
      "inputs": [],
      "name": "required",
      "outputs": [
        {
          "internalType": "uint256",
          "name": "",
          "type": "uint256"
        }
      ],
      "stateMutability": "view",
      "type": "function"
    },
    {
      "inputs": [
        {
          "internalType": "uint256",
          "name": "",
          "type": "uint256"
        }
      ],
      "name": "transactions",
      "outputs": [
        {
          "internalType": "address",
          "name": "to",
          "type": "address"
        },
        {
          "internalType": "uint256",
          "name": "value",
          "type": "uint256"
        },
        {
          "internalType": "bytes",
          "name": "data",
          "type": "bytes"
        },
        {
          "internalType": "bool",
          "name": "executed",
          "type": "bool"
        }
      ],
      "stateMutability": "view",
      "type": "function"
    },
    {
      "inputs": [],
      "name": "walletName",
      "outputs": [
        {
          "internalType": "string",
          "name": "",
          "type": "string"
        }
      ],
      "stateMutability": "view",
      "type": "function"
    },
    {
      "inputs": [],
      "name": "getName",
      "outputs": [
        {
          "internalType": "string",
          "name": "",
          "type": "string"
        }
      ],
      "stateMutability": "view",
      "type": "function"
    },
    {
      "inputs": [],
      "name": "getOwnersCount",
      "outputs": [
        {
          "internalType": "uint256",
          "name": "",
          "type": "uint256"
        }
      ],
      "stateMutability": "view",
      "type": "function"
    },
    {
      "inputs": [],
      "name": "getRequired",
      "outputs": [
        {
          "internalType": "uint256",
          "name": "",
          "type": "uint256"
        }
      ],
      "stateMutability": "view",
      "type": "function"
    },
    {
      "inputs": [],
      "name": "getTxs",
      "outputs": [
        {
          "components": [
            {
              "internalType": "address",
              "name": "to",
              "type": "address"
            },
            {
              "internalType": "uint256",
              "name": "value",
              "type": "uint256"
            },
            {
              "internalType": "bytes",
              "name": "data",
              "type": "bytes"
            },
            {
              "internalType": "bool",
              "name": "executed",
              "type": "bool"
            }
          ],
          "internalType": "struct MultisigWallet.Transaction[]",
          "name": "",
          "type": "tuple[]"
        }
      ],
      "stateMutability": "view",
      "type": "function"
    },
    {
      "inputs": [
        {
          "internalType": "address",
          "name": "_to",
          "type": "address"
        },
        {
          "internalType": "uint256",
          "name": "_value",
          "type": "uint256"
        },
        {
          "internalType": "bytes",
          "name": "_data",
          "type": "bytes"
        }
      ],
      "name": "submit",
      "outputs": [],
      "stateMutability": "nonpayable",
      "type": "function"
    },
    {
      "inputs": [
        {
          "internalType": "uint256",
          "name": "_txId",
          "type": "uint256"
        }
      ],
      "name": "approve",
      "outputs": [],
      "stateMutability": "nonpayable",
      "type": "function"
    },
    {
      "inputs": [
        {
          "internalType": "uint256",
          "name": "_txId",
          "type": "uint256"
        }
      ],
      "name": "_getApprovalCount",
      "outputs": [
        {
          "internalType": "uint256",
          "name": "count",
          "type": "uint256"
        }
      ],
      "stateMutability": "view",
      "type": "function"
    },
    {
      "inputs": [
        {
          "internalType": "uint256",
          "name": "_txId",
          "type": "uint256"
        }
      ],
      "name": "execute",
      "outputs": [],
      "stateMutability": "payable",
      "type": "function"
    }
  ],
  "bytecode": "0x608060405234801561001057600080fd5b50611a2c806100206000396000f3fe6080604052600436106100dd5760003560e01c80639ace38c21161007f578063dc8452cd11610059578063dc8452cd146102d7578063e0cedd9c14610302578063eda8b7cd1461032d578063fe0d94c11461036a576100dd565b80639ace38c214610243578063b759f95414610283578063cf8d8ca0146102ac576100dd565b806317d7de7c116100bb57806317d7de7c146101735780632f54bf6e1461019e57806373ff81cc146101db5780638253951a14610206576100dd565b8063025e7c27146100e25780631398a5f61461011f57806314de327f1461014a575b600080fd5b3480156100ee57600080fd5b506101096004803603810190610104919061101f565b610386565b604051610116919061108d565b60405180910390f35b34801561012b57600080fd5b506101346103c5565b60405161014191906110b7565b60405180910390f35b34801561015657600080fd5b50610171600480360381019061016c9190611163565b6103cf565b005b34801561017f57600080fd5b506101886105d8565b6040516101959190611270565b60405180910390f35b3480156101aa57600080fd5b506101c560048036038101906101c09190611292565b61066a565b6040516101d291906112da565b60405180910390f35b3480156101e757600080fd5b506101f061068a565b6040516101fd91906110b7565b60405180910390f35b34801561021257600080fd5b5061022d600480360381019061022891906112f5565b610697565b60405161023a91906112da565b60405180910390f35b34801561024f57600080fd5b5061026a6004803603810190610265919061101f565b6106c6565b60405161027a949392919061138a565b60405180910390f35b34801561028f57600080fd5b506102aa60048036038101906102a5919061101f565b6107bb565b005b3480156102b857600080fd5b506102c1610a55565b6040516102ce9190611270565b60405180910390f35b3480156102e357600080fd5b506102ec610ae3565b6040516102f991906110b7565b60405180910390f35b34801561030e57600080fd5b50610317610ae9565b6040516103249190611572565b60405180910390f35b34801561033957600080fd5b50610354600480360381019061034f919061101f565b610c55565b60405161036191906110b7565b60405180910390f35b610384600480360381019061037f919061101f565b610d30565b005b6001818154811061039657600080fd5b906000526020600020016000915054906101000a900473ffffffffffffffffffffffffffffffffffffffff1681565b6000600254905090565b600460003373ffffffffffffffffffffffffffffffffffffffff1673ffffffffffffffffffffffffffffffffffffffff16815260200190815260200160002060009054906101000a900460ff1661045b576040517f08c379a0000000000000000000000000000000000000000000000000000000008152600401610452906115e0565b60405180910390fd5b600360405180608001604052808673ffffffffffffffffffffffffffffffffffffffff16815260200185815260200184848080601f016020809104026020016040519081016040528093929190818152602001838380828437600081840152601f19601f82011690508083019250505050505050815260200160001515815250908060018154018082558091505060019003906000526020600020906004020160009091909190915060008201518160000160006101000a81548173ffffffffffffffffffffffffffffffffffffffff021916908373ffffffffffffffffffffffffffffffffffffffff160217905550602082015181600101556040820151816002019080519060200190610571929190610f3c565b5060608201518160030160006101000a81548160ff021916908315150217905550505060016003805490506105a6919061162f565b7f08324b3d745b914e3abd4ffbfead91e3b78391a98c173202129215ab933adfbe60405160405180910390a250505050565b6060600080546105e790611692565b80601f016020809104026020016040519081016040528092919081815260200182805461061390611692565b80156106605780601f1061063557610100808354040283529160200191610660565b820191906000526020600020905b81548152906001019060200180831161064357829003601f168201915b5050505050905090565b60046020528060005260406000206000915054906101000a900460ff1681565b6000600180549050905090565b60056020528160005260406000206020528060005260406000206000915091509054906101000a900460ff1681565b600381815481106106d657600080fd5b90600052602060002090600402016000915090508060000160009054906101000a900473ffffffffffffffffffffffffffffffffffffffff169080600101549080600201805461072590611692565b80601f016020809104026020016040519081016040528092919081815260200182805461075190611692565b801561079e5780601f106107735761010080835404028352916020019161079e565b820191906000526020600020905b81548152906001019060200180831161078157829003601f168201915b5050505050908060030160009054906101000a900460ff16905084565b600460003373ffffffffffffffffffffffffffffffffffffffff1673ffffffffffffffffffffffffffffffffffffffff16815260200190815260200160002060009054906101000a900460ff16610847576040517f08c379a000000000000000000000000000000000000000000000000000000000815260040161083e906115e0565b60405180910390fd5b80600380549050811061088f576040517f08c379a00000000000000000000000000000000000000000000000000000000081526004016108869061170f565b60405180910390fd5b816005600082815260200190815260200160002060003373ffffffffffffffffffffffffffffffffffffffff1673ffffffffffffffffffffffffffffffffffffffff16815260200190815260200160002060009054906101000a900460ff161561092e576040517f08c379a00000000000000000000000000000000000000000000000000000000081526004016109259061177b565b60405180910390fd5b82600381815481106109435761094261179b565b5b906000526020600020906004020160030160009054906101000a900460ff16156109a2576040517f08c379a000000000000000000000000000000000000000000000000000000000815260040161099990611816565b60405180910390fd5b60016005600086815260200190815260200160002060003373ffffffffffffffffffffffffffffffffffffffff1673ffffffffffffffffffffffffffffffffffffffff16815260200190815260200160002060006101000a81548160ff021916908315150217905550833373ffffffffffffffffffffffffffffffffffffffff167ff13bfe0b6ec5df39265dccb0a01a09aa4162489c7a083dc6670bde0255d02ca760405160405180910390a350505050565b60008054610a6290611692565b80601f0160208091040260200160405190810160405280929190818152602001828054610a8e90611692565b8015610adb5780601f10610ab057610100808354040283529160200191610adb565b820191906000526020600020905b815481529060010190602001808311610abe57829003601f168201915b505050505081565b60025481565b60606003805480602002602001604051908101604052809291908181526020016000905b82821015610c4c57838290600052602060002090600402016040518060800160405290816000820160009054906101000a900473ffffffffffffffffffffffffffffffffffffffff1673ffffffffffffffffffffffffffffffffffffffff1673ffffffffffffffffffffffffffffffffffffffff16815260200160018201548152602001600282018054610ba090611692565b80601f0160208091040260200160405190810160405280929190818152602001828054610bcc90611692565b8015610c195780601f10610bee57610100808354040283529160200191610c19565b820191906000526020600020905b815481529060010190602001808311610bfc57829003601f168201915b505050505081526020016003820160009054906101000a900460ff16151515158152505081526020019060010190610b0d565b50505050905090565b6000805b600180549050811015610d2a5760056000848152602001908152602001600020600060018381548110610c8f57610c8e61179b565b5b9060005260206000200160009054906101000a900473ffffffffffffffffffffffffffffffffffffffff1673ffffffffffffffffffffffffffffffffffffffff1673ffffffffffffffffffffffffffffffffffffffff16815260200190815260200160002060009054906101000a900460ff1615610d1757600182610d149190611836565b91505b8080610d229061188c565b915050610c59565b50919050565b806003805490508110610d78576040517f08c379a0000000000000000000000000000000000000000000000000000000008152600401610d6f9061170f565b60405180910390fd5b8160038181548110610d8d57610d8c61179b565b5b906000526020600020906004020160030160009054906101000a900460ff1615610dec576040517f08c379a0000000000000000000000000000000000000000000000000000000008152600401610de390611816565b60405180910390fd5b600060038481548110610e0257610e0161179b565b5b9060005260206000209060040201905060018160030160006101000a81548160ff02191690831515021790555060008160000160009054906101000a900473ffffffffffffffffffffffffffffffffffffffff1673ffffffffffffffffffffffffffffffffffffffff16826001015483600201604051610e829190611973565b60006040518083038185875af1925050503d8060008114610ebf576040519150601f19603f3d011682016040523d82523d6000602084013e610ec4565b606091505b5050905080610f08576040517f08c379a0000000000000000000000000000000000000000000000000000000008152600401610eff906119d6565b60405180910390fd5b847fddb556f1d2c1ec821e910b019d3685b229db152a0ecd517ca7e24b8bd713928960405160405180910390a25050505050565b828054610f4890611692565b90600052602060002090601f016020900481019282610f6a5760008555610fb1565b82601f10610f8357805160ff1916838001178555610fb1565b82800160010185558215610fb1579182015b82811115610fb0578251825591602001919060010190610f95565b5b509050610fbe9190610fc2565b5090565b5b80821115610fdb576000816000905550600101610fc3565b5090565b600080fd5b600080fd5b6000819050919050565b610ffc81610fe9565b811461100757600080fd5b50565b60008135905061101981610ff3565b92915050565b60006020828403121561103557611034610fdf565b5b60006110438482850161100a565b91505092915050565b600073ffffffffffffffffffffffffffffffffffffffff82169050919050565b60006110778261104c565b9050919050565b6110878161106c565b82525050565b60006020820190506110a2600083018461107e565b92915050565b6110b181610fe9565b82525050565b60006020820190506110cc60008301846110a8565b92915050565b6110db8161106c565b81146110e657600080fd5b50565b6000813590506110f8816110d2565b92915050565b600080fd5b600080fd5b600080fd5b60008083601f840112611123576111226110fe565b5b8235905067ffffffffffffffff8111156111405761113f611103565b5b60208301915083600182028301111561115c5761115b611108565b5b9250929050565b6000806000806060858703121561117d5761117c610fdf565b5b600061118b878288016110e9565b945050602061119c8782880161100a565b935050604085013567ffffffffffffffff8111156111bd576111bc610fe4565b5b6111c98782880161110d565b925092505092959194509250565b600081519050919050565b600082825260208201905092915050565b60005b838110156112115780820151818401526020810190506111f6565b83811115611220576000848401525b50505050565b6000601f19601f8301169050919050565b6000611242826111d7565b61124c81856111e2565b935061125c8185602086016111f3565b61126581611226565b840191505092915050565b6000602082019050818103600083015261128a8184611237565b905092915050565b6000602082840312156112a8576112a7610fdf565b5b60006112b6848285016110e9565b91505092915050565b60008115159050919050565b6112d4816112bf565b82525050565b60006020820190506112ef60008301846112cb565b92915050565b6000806040838503121561130c5761130b610fdf565b5b600061131a8582860161100a565b925050602061132b858286016110e9565b9150509250929050565b600081519050919050565b600082825260208201905092915050565b600061135c82611335565b6113668185611340565b93506113768185602086016111f3565b61137f81611226565b840191505092915050565b600060808201905061139f600083018761107e565b6113ac60208301866110a8565b81810360408301526113be8185611351565b90506113cd60608301846112cb565b95945050505050565b600081519050919050565b600082825260208201905092915050565b6000819050602082019050919050565b61140b8161106c565b82525050565b61141a81610fe9565b82525050565b600082825260208201905092915050565b600061143c82611335565b6114468185611420565b93506114568185602086016111f3565b61145f81611226565b840191505092915050565b611473816112bf565b82525050565b60006080830160008301516114916000860182611402565b5060208301516114a46020860182611411565b50604083015184820360408601526114bc8282611431565b91505060608301516114d1606086018261146a565b508091505092915050565b60006114e88383611479565b905092915050565b6000602082019050919050565b6000611508826113d6565b61151281856113e1565b935083602082028501611524856113f2565b8060005b85811015611560578484038952815161154185826114dc565b945061154c836114f0565b925060208a01995050600181019050611528565b50829750879550505050505092915050565b6000602082019050818103600083015261158c81846114fd565b905092915050565b7f73656e646572206d757374206265206f776e6572000000000000000000000000600082015250565b60006115ca6014836111e2565b91506115d582611594565b602082019050919050565b600060208201905081810360008301526115f9816115bd565b9050919050565b7f4e487b7100000000000000000000000000000000000000000000000000000000600052601160045260246000fd5b600061163a82610fe9565b915061164583610fe9565b92508282101561165857611657611600565b5b828203905092915050565b7f4e487b7100000000000000000000000000000000000000000000000000000000600052602260045260246000fd5b600060028204905060018216806116aa57607f821691505b6020821081036116bd576116bc611663565b5b50919050565b7f747820646f6573206e6f74206578697374000000000000000000000000000000600082015250565b60006116f96011836111e2565b9150611704826116c3565b602082019050919050565b60006020820190508181036000830152611728816116ec565b9050919050565b7f747820616c726561647920617070726f76656400000000000000000000000000600082015250565b60006117656013836111e2565b91506117708261172f565b602082019050919050565b6000602082019050818103600083015261179481611758565b9050919050565b7f4e487b7100000000000000000000000000000000000000000000000000000000600052603260045260246000fd5b7f7468697320747820697320616c72656164792065786578757465640000000000600082015250565b6000611800601b836111e2565b915061180b826117ca565b602082019050919050565b6000602082019050818103600083015261182f816117f3565b9050919050565b600061184182610fe9565b915061184c83610fe9565b9250827fffffffffffffffffffffffffffffffffffffffffffffffffffffffffffffffff0382111561188157611880611600565b5b828201905092915050565b600061189782610fe9565b91507fffffffffffffffffffffffffffffffffffffffffffffffffffffffffffffffff82036118c9576118c8611600565b5b600182019050919050565b600081905092915050565b60008190508160005260206000209050919050565b6000815461190181611692565b61190b81866118d4565b9450600182166000811461192657600181146119375761196a565b60ff1983168652818601935061196a565b611940856118df565b60005b8381101561196257815481890152600182019150602081019050611943565b838801955050505b50505092915050565b600061197f82846118f4565b915081905092915050565b7f7478206661696c65640000000000000000000000000000000000000000000000600082015250565b60006119c06009836111e2565b91506119cb8261198a565b602082019050919050565b600060208201905081810360008301526119ef816119b3565b905091905056fea2646970667358221220c3de40589b4379f4f42be9cd0da6035e0fa4da0a0f064bf7648388e0fa7c13a864736f6c634300080d0033",
  "immutableReferences": {},
  "source": "// SPDX-License-Identifier: unlicensed\npragma solidity ^0.8.0;\n\n// Wallet\ncontract MultisigWallet {\n  // \n  struct Transaction {\n    // \n    address to;\n    // \n    uint value;\n    // \n    bytes data;\n    // \n    bool executed;\n  }\n\n  // \n  string public walletName;\n\n  function getName() public view returns (string memory) {\n    return walletName;\n  }\n\n  //OwnerOwner\n  address[] public owners;\n\n  function getOwnersCount() public view returns(uint){\n    return owners.length;\n  }\n\n  // \n  uint public required;\n\n  function getRequired() public view returns(uint){\n    return required;\n  }\n\n  //Transaction\n  Transaction[] public transactions;\n\n  function getTxs() public view returns(Transaction[] memory){\n    return transactions;\n  }\n\n\n  // addressownerTrue\n  mapping(address => bool) public isOwner;\n\n  // TransactionIDOwner\n  mapping(uint => mapping(address => bool)) public approved;\n\n  // \n  event Deposit(address indexed sender, uint amount);\n  event Submit(uint indexed txId);\n  event Approved(address indexed owner, uint indexed txId);\n  event Revoke(address indexed owner, uint indexed txId);\n  event Execute(uint indexed txId);\n\n  // modifier\n  modifier onlyOwner() {\n    require(isOwner[msg.sender], \"sender must be owner\");\n    _;\n  }\n\n  modifier txExists(uint _txId) {\n    require(_txId < transactions.length, \"tx does not exist\");\n    _;\n  }\n\n  modifier notApproved(uint _txId) {\n    require(!approved[_txId][msg.sender], \"tx already approved\");\n    _;\n  }\n\n  modifier notExecuted(uint _txId) {\n    require(!transactions[_txId].executed, \"this tx is already exexuted\");\n    _;\n  }\n\n\n  /**\n   * \n   * TransactionTransactions[]PushExecutedFalse\n   * @param _to \n   * @param _value\n   * @param _data\n   */\n  function submit(address _to, uint _value, bytes calldata _data) external onlyOwner{\n    transactions.push(Transaction({\n      to: _to,\n      value: _value,\n      data: _data,\n      executed: false\n    }));\n    // \n    emit Submit(transactions.length - 1);\n  }\n\n  /**\n   * ID\n   * @param _txId ID\n   */\n  function approve(uint _txId)external onlyOwner txExists(_txId) notApproved(_txId) notExecuted(_txId) {\n    // txapprovedtrue\n    approved[_txId][msg.sender] = true;\n\n    // \n    emit Approved(msg.sender, _txId);\n  }\n\n  /**\n   * ID\n   * @param _txId TxID\n   */\n   function _getApprovalCount(uint _txId) public view returns(uint count) {\n    for (uint i; i < owners.length; i++) {\n      if(approved[_txId][owners[i]] ){\n        count += 1;\n      }\n    }\n   }\n\n   /**\n    * \n    * @param _txId TxID\n    */\n    function execute(uint _txId) payable external txExists(_txId) notExecuted(_txId) {\n      Transaction storage transaction = transactions[_txId];\n      transaction.executed = true;\n\n      // successBool\n      (bool success, ) = payable(transaction.to).call{value: transaction.value}(\n        transaction.data\n      );\n      // \n      require(success, \"tx failed\");\n      // \n      emit Execute(_txId);\n    }\n  }\n",
  "sourcePath": "/Users/takagihrs/Desktop/MyProject/dapp/multisig-wallet/backend/contracts/MultisigWallet.sol",
  "compiler": {
    "name": "solc",
    "version": "0.8.13+commit.abaa5c0e.Emscripten.clang"
  },
  "schemaVersion": "3.4.7",
  "updatedAt": "2022-08-11T16:51:33.437Z",
  "devdoc": {
    "kind": "dev",
    "methods": {
      "_getApprovalCount(uint256)": {
        "params": {
          "_txId": "TxID"
        }
      },
      "approve(uint256)": {
        "params": {
          "_txId": "ID"
        }
      },
      "execute(uint256)": {
        "params": {
          "_txId": "TxID"
        }
      },
      "submit(address,uint256,bytes)": {
        "params": {
          "_data": "",
          "_to": "",
          "_value": ""
        }
      }
    },
    "version": 1
  },
  "userdoc": {
    "kind": "user",
    "methods": {
      "_getApprovalCount(uint256)": {
        "notice": "ID"
      },
      "approve(uint256)": {
        "notice": "ID"
      },
      "execute(uint256)": {
        "notice": ""
      },
      "submit(address,uint256,bytes)": {
        "notice": " TransactionTransactions[]PushExecutedFalse"
      }
    },
    "version": 1
  }
}