{
  "contractName": "WalletFactory",
  "abi": [
    {
      "anonymous": false,
      "inputs": [
        {
          "indexed": true,
          "internalType": "contract MultisigWallet",
          "name": "wallet",
          "type": "address"
        },
        {
          "indexed": false,
          "internalType": "string",
          "name": "name",
          "type": "string"
        },
        {
          "indexed": false,
          "internalType": "address[]",
          "name": "owners",
          "type": "address[]"
        },
        {
          "indexed": false,
          "internalType": "uint256",
          "name": "required",
          "type": "uint256"
        }
      ],
      "name": "WalletCreated",
      "type": "event"
    },
    {
      "inputs": [
        {
          "internalType": "uint256",
          "name": "",
          "type": "uint256"
        }
      ],
      "name": "wallets",
      "outputs": [
        {
          "internalType": "contract MultisigWallet",
          "name": "",
          "type": "address"
        }
      ],
      "stateMutability": "view",
      "type": "function"
    },
    {
      "inputs": [
        {
          "internalType": "string",
          "name": "_name",
          "type": "string"
        },
        {
          "internalType": "address[]",
          "name": "_owners",
          "type": "address[]"
        },
        {
          "internalType": "uint256",
          "name": "_required",
          "type": "uint256"
        }
      ],
      "name": "createWallet",
      "outputs": [],
      "stateMutability": "nonpayable",
      "type": "function"
    }
  ],
  "bytecode": "0x608060405234801561001057600080fd5b506104e9806100206000396000f3fe608060405234801561001057600080fd5b50600436106100365760003560e01c80637ad71f721461003b578063d4e15c781461006b575b600080fd5b61005560048036038101906100509190610115565b610087565b60405161006291906101c1565b60405180910390f35b61008560048036038101906100809190610428565b6100c6565b005b6000818154811061009757600080fd5b906000526020600020016000915054906101000a900473ffffffffffffffffffffffffffffffffffffffff1681565b505050565b6000604051905090565b600080fd5b600080fd5b6000819050919050565b6100f2816100df565b81146100fd57600080fd5b50565b60008135905061010f816100e9565b92915050565b60006020828403121561012b5761012a6100d5565b5b600061013984828501610100565b91505092915050565b600073ffffffffffffffffffffffffffffffffffffffff82169050919050565b6000819050919050565b600061018761018261017d84610142565b610162565b610142565b9050919050565b60006101998261016c565b9050919050565b60006101ab8261018e565b9050919050565b6101bb816101a0565b82525050565b60006020820190506101d660008301846101b2565b92915050565b600080fd5b600080fd5b6000601f19601f8301169050919050565b7f4e487b7100000000000000000000000000000000000000000000000000000000600052604160045260246000fd5b61022f826101e6565b810181811067ffffffffffffffff8211171561024e5761024d6101f7565b5b80604052505050565b60006102616100cb565b905061026d8282610226565b919050565b600067ffffffffffffffff82111561028d5761028c6101f7565b5b610296826101e6565b9050602081019050919050565b82818337600083830152505050565b60006102c56102c084610272565b610257565b9050828152602081018484840111156102e1576102e06101e1565b5b6102ec8482856102a3565b509392505050565b600082601f830112610309576103086101dc565b5b81356103198482602086016102b2565b91505092915050565b600067ffffffffffffffff82111561033d5761033c6101f7565b5b602082029050602081019050919050565b600080fd5b600061035e82610142565b9050919050565b61036e81610353565b811461037957600080fd5b50565b60008135905061038b81610365565b92915050565b60006103a461039f84610322565b610257565b905080838252602082019050602084028301858111156103c7576103c661034e565b5b835b818110156103f057806103dc888261037c565b8452602084019350506020810190506103c9565b5050509392505050565b600082601f83011261040f5761040e6101dc565b5b813561041f848260208601610391565b91505092915050565b600080600060608486031215610441576104406100d5565b5b600084013567ffffffffffffffff81111561045f5761045e6100da565b5b61046b868287016102f4565b935050602084013567ffffffffffffffff81111561048c5761048b6100da565b5b610498868287016103fa565b92505060406104a986828701610100565b915050925092509256fea2646970667358221220a04249e465e64663a9760d783473bf1963c4d3979b91ce4c5bb0f7dcdbf5154364736f6c634300080d0033",
  "immutableReferences": {},
  "source": "// SPDX-License-Identifier: unlicensed\npragma solidity ^0.8.0;\n\nimport './MultisigWallet.sol';\n\n// OwnerMultisigWalletownerFactoryContract\ncontract WalletFactory {\n    // MultiSigWallet\n    MultisigWallet[] public wallets;    \n\n    // Wallet\n    event WalletCreated (MultisigWallet indexed wallet, string name, address[] owners, uint required);\n\n    // MultisigWallet\n    function createWallet (\n        string memory _name,\n        address[] memory _owners,\n        uint _required\n    ) public {\n        //MultisigWallet wallet = new MultisigWallet(_name, _owners, _required);\n    }\n}\n",
  "sourcePath": "/Users/takagihrs/Desktop/MyProject/dapp/multisig-wallet/backend/contracts/WalletFatory.sol",
  "compiler": {
    "name": "solc",
    "version": "0.8.13+commit.abaa5c0e.Emscripten.clang"
  },
  "schemaVersion": "3.4.7",
  "updatedAt": "2022-08-06T14:48:24.638Z",
  "devdoc": {
    "kind": "dev",
    "methods": {},
    "version": 1
  },
  "userdoc": {
    "kind": "user",
    "methods": {},
    "version": 1
  }
}